{
  "_format": "hh-sol-artifact-1",
  "contractName": "WhiteList",
  "sourceName": "contracts/whitelist.sol",
  "abi": [
    {
      "inputs": [
        {
          "internalType": "uint8",
          "name": "_maxWhitelistedAddresses",
          "type": "uint8"
        }
      ],
      "stateMutability": "nonpayable",
      "type": "constructor"
    },
    {
      "inputs": [],
      "name": "addAddressToWhitelist",
      "outputs": [],
      "stateMutability": "nonpayable",
      "type": "function"
    },
    {
      "inputs": [],
      "name": "maxWhitelistedAddresses",
      "outputs": [
        {
          "internalType": "uint256",
          "name": "",
          "type": "uint256"
        }
      ],
      "stateMutability": "view",
      "type": "function"
    },
    {
      "inputs": [],
      "name": "numAddressesWhitelisted",
      "outputs": [
        {
          "internalType": "uint8",
          "name": "",
          "type": "uint8"
        }
      ],
      "stateMutability": "view",
      "type": "function"
    },
    {
      "inputs": [
        {
          "internalType": "address",
          "name": "",
          "type": "address"
        }
      ],
      "name": "whitelistedAddresses",
      "outputs": [
        {
          "internalType": "bool",
          "name": "",
          "type": "bool"
        }
      ],
      "stateMutability": "view",
      "type": "function"
    }
  ],
  "bytecode": "0x608060405234801561001057600080fd5b5060405161061f38038061061f83398181016040528101906100329190610057565b8060ff16600081905550506100a4565b6000815190506100518161008d565b92915050565b60006020828403121561006957600080fd5b600061007784828501610042565b91505092915050565b600060ff82169050919050565b61009681610080565b81146100a157600080fd5b50565b61056c806100b36000396000f3fe608060405234801561001057600080fd5b506004361061004c5760003560e01c806306c933d81461005157806331a72188146100815780634011d7cd1461009f5780638e7314d9146100bd575b600080fd5b61006b60048036038101906100669190610288565b6100c7565b6040516100789190610324565b60405180910390f35b6100896100e7565b604051610096919061037f565b60405180910390f35b6100a76100ed565b6040516100b4919061039a565b60405180910390f35b6100c5610100565b005b60016020528060005260406000206000915054906101000a900460ff1681565b60005481565b600260009054906101000a900460ff1681565b600160003373ffffffffffffffffffffffffffffffffffffffff1673ffffffffffffffffffffffffffffffffffffffff16815260200190815260200160002060009054906101000a900460ff161561018d576040517f08c379a00000000000000000000000000000000000000000000000000000000081526004016101849061035f565b60405180910390fd5b600054600260009054906101000a900460ff1660ff16106101e3576040517f08c379a00000000000000000000000000000000000000000000000000000000081526004016101da9061033f565b60405180910390fd5b60018060003373ffffffffffffffffffffffffffffffffffffffff1673ffffffffffffffffffffffffffffffffffffffff16815260200190815260200160002060006101000a81548160ff0219169083151502179055506001600260008282829054906101000a900460ff1661025991906103c6565b92506101000a81548160ff021916908360ff160217905550565b6000813590506102828161051f565b92915050565b60006020828403121561029a57600080fd5b60006102a884828501610273565b91505092915050565b6102ba8161040f565b82525050565b60006102cd602c836103b5565b91506102d882610481565b604082019050919050565b60006102f06023836103b5565b91506102fb826104d0565b604082019050919050565b61030f8161043b565b82525050565b61031e81610445565b82525050565b600060208201905061033960008301846102b1565b92915050565b60006020820190508181036000830152610358816102c0565b9050919050565b60006020820190508181036000830152610378816102e3565b9050919050565b60006020820190506103946000830184610306565b92915050565b60006020820190506103af6000830184610315565b92915050565b600082825260208201905092915050565b60006103d182610445565b91506103dc83610445565b92508260ff038211156103f2576103f1610452565b5b828201905092915050565b60006104088261041b565b9050919050565b60008115159050919050565b600073ffffffffffffffffffffffffffffffffffffffff82169050919050565b6000819050919050565b600060ff82169050919050565b7f4e487b7100000000000000000000000000000000000000000000000000000000600052601160045260246000fd5b7f4d6f7265206164647265737365732063616e27742062652061646465642c206c60008201527f696d697420726561636865640000000000000000000000000000000000000000602082015250565b7f53656e6465722068617320616c7265616479206265656e2077686974656c697360008201527f7465640000000000000000000000000000000000000000000000000000000000602082015250565b610528816103fd565b811461053357600080fd5b5056fea26469706673582212201a3a18d430a0e6810211ec512d6a4b6802b300aa907aebae8d0697d6992a21d864736f6c63430008040033",
  "linkReferences": {},
  "deployedLinkReferences": {}
}